:040000004CEF00F0D1
:100008005E82F0A00AEF00F00CEF00F01DEF00F0A8
:10001800F0900001FE4BFF2BD605D711D8A417EF9F
:1000280000F019EF00F01DEF00F0000ED56F010E83
:10003800D46FF0A222EF00F024EF00F036EF00F0CA
:10004800F0920001FE07D8A0FF07D605D711D8A463
:1000580030EF00F032EF00F036EF00F0000ED56F11
:10006800010ED46FF2A43BEF00F03DEF00F04AEF31
:1000780000F0F2940001CE05CF11D8A446EF00F0AD
:1000880048EF00F04AEF00F0D84BD92B5E921100F0
:0400980068EF15F008
:100F000000626F7272616E646F206D656D6F7269E1
:100F100061004E657720686967682073636F72654A
:100F20002100507265737320746F20636F6E742E8E
:100F300000486967686573742073636F72653A006F
:100F4000596F75722053636F72653A256C7500474F
:100F5000616D65206F766572203A282000476574C0
:100F6000207365742E2E2E00256C7520706F696EAF
:100F700074730053636F72653A20256C750053617A
:100F800076696E672E2E2E0052656164792E2E2EA4
:100F9000004E6976656C202031004E6976656C20C4
:100FA00032004E6976656C2033004E6976656C20A0
:100FB0003400474F21006C58006C78002578000001
:100FC000000E0001CF6F000ECE6F000EED6F000E11
:100FD000EC6F000EFF6F030EFE6F8DEC17F0C1EC8F
:100FE00017F0DAEC17F0CFEC17F0C0EC11F0ECECE6
:100FF00017F0B0EC17F005EC18F007EC10F0000E4D
:101000000001D56F000ED46FB80E606F000E616FD7
:10101000880E626F0F0E636F84EC16F0B80E026ECE
:10102000000E036EC1EC15F01F0E0001B76F710EBC
:10103000B66F1E0EE82EFED7B62FFCD7B72FFAD705
:1010400000F09FEC17F0B80E0001606F000E616FAA
:101050005D0E626F0F0E636F84EC16F0B80E026EB9
:10106000000E036EC1EC15F01F0E0001B76F710E7C
:10107000B66F1E0EE82EFED7B62FFCD7B72FFAD7C5
:1010800000F09FEC17F0B80E0001606F000E616F6A
:10109000B20E626F0F0E636F84EC16F0B80E026E24
:1010A000000E036EC1EC15F01F0E0001B76F710E3C
:1010B000B66F1E0EE82EFED7B62FFCD7B72FFAD785
:1010C00000F09FEC17F0B80E0001606F000E616F2A
:1010D000910E626F0F0E636F84EC16F0B80E026E05
:1010E000000E036EC1EC15F0000E0001CF6F010E73
:1010F000CE6F000ED76E000ED66ED58E24EE00F0A9
:1011000011EE00F0FF0EDECFE6FFE806FCE2000E77
:10111000D95EE15E000EC36F000EC26F000EE16F7C
:10112000000EE06F000EDD6F000EDC6FF6EF08F0D2
:10113000000EDF6F000EDE6FDFBFA8EF08F0DF519B
:1011400009E1080EDE5DD8A0A8EF08F0AAEF08F0CC
:10115000ACEF08F0F4EF08F062EC17F0000E8B6EC5
:10116000E2C08CFF100E0001B66F940EE82EFED781
:10117000B62FFCD700F0DEC08BFF0001E051DE256A
:10118000B66FE151DF21B76FD890B637B737000E91
:10119000B625D96E010EB721DA6EDF508C6E100EB7
:1011A0000001B66F940EE82EFED7B62FFCD700F0E4
:1011B0000001DE51DF11D8A4E0EF08F0E2EF08F003
:1011C000F0EF08F0FCEC10F00001D405D511D8A424
:1011D000ECEF08F0EEEF08F0F0EF08F025EF0AF082
:1011E000DE4BDF2B9CEF08F0DC4BDD2BC2C001F0A7
:1011F000C3C002F0FF0E046EF60E036E7AEC17F019
:10120000190E0126000E022201500001DC5DDD51A5
:10121000800AB66F0250800AB659D8A012EF09F0C2
:1012200014EF09F098EF08F0E04BE12BE1BF22EF5B
:1012300009F0E15109E1780EE05DD8A022EF09F054
:1012400024EF09F092EF08F09FEC17F0B80E0001C0
:10125000606F000E616F9A0E626F0F0E636F84EC09
:1012600016F0B80E026E000E036EC1EC15F0000110
:10127000C24BC32BC3BF46EF09F0C35109E1020EB5
:10128000C25DD8A046EF09F048EF09F08EEF08F0F4
:101290009FEC17F0B80E0001606F000E616FA20E98
:1012A000626F0F0E636F84EC16F0B80E026E000EC4
:1012B000036EC1EC15F025EE00F012EE00F0FF0E0B
:1012C000DECFE6FFE806FCE2000ED95EE15E000E2E
:1012D0000001C36F000EC26F000EE16F000EE06FE1
:1012E000000EDD6F000EDC6FD4EF09F0000EDF6F33
:1012F000000EDE6FDFBF86EF09F0DF5109E1080E57
:10130000DE5DD8A086EF09F088EF09F08AEF09F0DA
:10131000D2EF09F062EC17F0000E8B6EE2C08CFF8A
:10132000100E0001B66F940EE82EFED7B62FFCD734
:1013300000F0DEC08BFF0001E051DE25B66FE15109
:10134000DF21B76FD890B637B737000EB625D96E04
:10135000020EB721DA6EDF508C6E100E0001B66FF0
:10136000940EE82EFED7B62FFCD700F00001DE5118
:10137000DF11D8A4BEEF09F0C0EF09F0CEEF09F0FD
:10138000FCEC10F00001D405D511D8A4CAEF09F087
:10139000CCEF09F0CEEF09F025EF0AF0DE4BDF2BA2
:1013A0007AEF09F0DC4BDD2BC2C001F0C3C002F0C4
:1013B000FF0E046EF60E036E7AEC17F0190E01267E
:1013C000000E022201500001DC5DDD51800AB66F83
:1013D0000250800AB659D8A0F0EF09F0F2EF09F0F8
:1013E00076EF09F0E04BE12BE1BF00EF0AF0E151AD
:1013F00009E1800EE05DD8A000EF0AF002EF0AF0EC
:1014000070EF09F0B80E606F000E616FAA0E626F88
:101410000F0E636F84EC16F0B80E026E000E036EB2
:10142000C1EC15F00001C24BC32BC3BF21EF0AF082
:10143000C35109E1020EC25DD8A021EF0AF023EFEB
:101440000AF06CEF09F08AEF08F04CEF00F041C0B1
:10145000D9FF42C0DAFFDECFF6FFDDCFF7FF08008D
:10146000F550250AD8A437EF0AF039EF0AF006EF55
:101470000CF041C0D9FF42C0DAFFDE2A000EDD22A7
:10148000000E0001C76F000EC66FC6C0CAF0C7C00D
:10149000CBF0C869C96941C0D9FF42C0DAFFDECFCD
:1014A000F6FFDDCFF7FF0800F550750AD8A45BEF13
:1014B0000AF05DEF0AF09EEF0AF041C0D9FF42C08A
:1014C000DAFFDE2A000EDD2243C0D9FF44C0DAFF76
:1014D000DFCF45F0020EDE26DFCF46F0000EDD2224
:1014E00045C0D9FF46C0DAFFDECF47F0DDCF48F078
:1014F00047C04CF048C04DF04E6A4F6A506A516A7E
:10150000526A536A3FC01CF040C01DF04CC01EF030
:101510004DC01FF04EC020F04FC021F050C022F04F
:1015200051C023F052C024F053C025F005EC0FF059
:101530001CC03FF01DC040F021EF0CF041C0D9FFAE
:1015400042C0DAFFDECF01F0DDCF02F07B0E036E8A
:101550000F0E046E000E066E020E056EC9EC13F03F
:1015600001500210D8A4B7EF0AF0B9EF0AF0E7EF84
:101570000AF0020E41C0D9FF42C0DAFFDE26000E9B
:10158000DD2243C0D9FF44C0DAFFDFCF45F0040EAF
:10159000DE26DFCF46F0000EDD2245C0D9FF46C073
:1015A000DAFFDECF47F0DECF48F0DECF49F0DECF06
:1015B0004AF047504C6E48504D6E49504E6E4A505E
:1015C0004F6E506A516A526A536A82EF0AF041C004
:1015D000D9FF42C0DAFFDECFF6FFDDCFF7FF08000C
:1015E000F550780AD8B4F7EF0AF0F9EF0AF00BEFEC
:1015F0000BF041C0D9FF42C0DAFFDECFF6FFDDCFEE
:10160000F7FF0800F550580AD8A409EF0BF00BEFCC
:101610000BF059EF0BF041C0D9FF42C0DAFFDECF2B
:10162000F6FFDDCFF7FF0800F5CF4BF041C0D9FF43
:1016300042C0DAFFDE2A000EDD2243C0D9FF44C0DB
:10164000DAFFDFCF45F0020EDE26DFCF46F0000ED8
:10165000DD2245C0D9FF46C0DAFFDECF47F0DDCF3F
:1016600048F047C04CF048C04DF04E6A4F6A506A8F
:10167000516A526A536A3FC01CF040C01DF04CC012
:101680001EF04DC01FF04EC020F04FC021F050C0E2
:1016900022F051C023F052C024F053C025F04BC0BB
:1016A00026F0B2EC0DF01CC03FF01DC040F021EF61
:1016B0000CF041C0D9FF42C0DAFFDECF01F0DDCF30
:1016C00002F0B90E036E0F0E046E000E066E020ECF
:1016D000056EC9EC13F001500210D8B472EF0BF094
:1016E00074EF0BF08FEF0BF041C0D9FF42C0DAFF6F
:1016F000DECF01F0DDCF02F0B60E036E0F0E046EEA
:10170000000E066E020E056EC9EC13F001500210B9
:10171000D8A48DEF0BF08FEF0BF0D0EF0BF041C0A2
:10172000D9FF42C0DAFFDECF45F0DDCF46F0010E33
:101730004526000E462245C0F6FF46C0F7FF0800CA
:10174000F5CF4BF0020E41C0D9FF42C0DAFFDE26D2
:10175000000EDD2243C0D9FF44C0DAFFDFCF45F0E1
:10176000040EDE26DFCF46F0000EDD2245C0D9FF95
:1017700046C0DAFFDECF47F0DECF48F0DECF49F0DB
:10178000DECF4AF047504C6E48504D6E49504E6E79
:101790004A504F6E506A516A526A536A3BEF0BF0DF
:1017A00041C0D9FF42C0DAFFDECFF6FFDDCFF7FF41
:1017B0000800F550250AD8A4E0EF0BF0E2EF0BF09B
:1017C000F9EF0BF041C0D9FF42C0DAFFDE2A000E6C
:1017D000DD22000E026E250E016E3FC003F040C0F8
:1017E00004F0A0EC14F0000E406E010E3F6E21EFED
:1017F0000CF041C0D9FF42C0DAFFDE2A000EDD2224
:10180000000E406E000E3F6E21EF0CF041C0D9FF7C
:1018100042C0DAFFDECFF6FFDDCFF7FF0800F5505C
:10182000016E026A3FC003F040C004F0A0EC14F067
:1018300041C0D9FF42C0DAFFDE2A000EDD22F3EFFD
:101840000BF01200000E0001836F9FEC17F0ECEC20
:1018500017F0730E0001606F000E616F7E0E626FF5
:101860000F0E636F84EC16F0730E026E000E036EA3
:10187000C1EC15F0D8C001F0D9C002F0000E046E22
:101880008C0E036E7AEC17F001C05CF002C05DF0C4
:10189000D6CF01F0D7CF02F0030E046EE80E036E30
:1018A00019EC16F0D8900136023601505C24000184
:1018B000CC6F02505D20CD6FC580C5B062EF0CF0DB
:1018C00064EF0CF05DEF0CF0A00EC96E100E5C6EB4
:1018D000940EE82EFED75C2EFCD700D0C7B473EF71
:1018E0000CF075EF0CF06EEF0CF0000EC96EC7B483
:1018F0007CEF0CF07EEF0CF077EF0CF0010EC96E70
:10190000C7B485EF0CF087EF0CF080EF0CF0C582C8
:10191000C5B28DEF0CF08FEF0CF088EF0CF0A10E3C
:10192000C96EC7B496EF0CF098EF0CF091EF0CF085
:10193000C586C5B69EEF0CF0A0EF0CF099EF0CF049
:10194000C9CF7FF0C59AC588C5B8A9EF0CF0ABEF39
:101950000CF0A4EF0CF0C586C5B6B1EF0CF0B3EFF8
:101960000CF0ACEF0CF0C9CF80F0C58AC588C5B8C3
:10197000BCEF0CF0BEEF0CF0B7EF0CF0C584C5B4B3
:10198000C4EF0CF0C6EF0CF0BFEF0CF000017F517C
:101990005D6E5C6A80515C24846F000E5D20856FF3
:1019A000CC51845DCD518559D8B0D9EF0CF0DBEF27
:1019B0000CF072EF0DF0CD51816FCCC082F0C5807C
:1019C000100E5C6E940EE82EFED75C2EFCD700D075
:1019D000C5B0EDEF0CF0EFEF0CF0E8EF0CF0A00E5F
:1019E000C96E100E5C6E940EE82EFED75C2EFCD7EE
:1019F00000D0C7B4FEEF0CF000EF0DF0F9EF0CF0E3
:101A0000000EC96EC7B407EF0DF009EF0DF002EF3D
:101A10000DF0010EC96EC7B410EF0DF012EF0DF00E
:101A20000BEF0DF081C0C9FFC7B419EF0DF01BEF2C
:101A30000DF014EF0DF082C0C9FFC7B422EF0DF016
:101A400024EF0DF01DEF0DF0C584C5B42AEF0DF0A5
:101A50002CEF0DF025EF0DF0070E5D6E170E5C6E8E
:101A60006A0EE82EFED75C2EFCD75D2EFAD700D08A
:101A70009FEC17F0ECEC17F0730E0001606F000E96
:101A8000616F120E626F0F0E636F84EC16F0730EAF
:101A9000026E000E036EC1EC15F0E3EC17F0730E4E
:101AA0000001606F000E616F730E626F0F0E636F47
:101AB000CCC064F0CDC065F084EC16F0730E026EFD
:101AC000000E036EC1EC15F03D0E5D6EE10E5C6E16
:101AD000400EE82EFED75C2EFCD75D2EFAD7010E05
:101AE0000001836F8305D8A478EF0DF07AEF0DF035
:101AF000B1EF0DF09FEC17F0ECEC17F0730E000156
:101B0000606F000E616F310E626F0F0E636F84ECB9
:101B100016F0730E026E000E036EC1EC15F0E3ECCE
:101B200017F0730E0001606F000E616F680E626F38
:101B30000F0E636F84C064F085C065F084EC16F00E
:101B4000730E026E000E036EC1EC15F03D0E5D6E5D
:101B5000E10E5C6E400EE82EFED75C2EFCD75D2EAB
:101B6000FAD712000001C9BFB8EF0DF0BAEF0DF0BF
:101B7000BBEF0DF0CA93C9BFC8EF0DF0C95106E124
:101B8000C805D8B0C6EF0DF0C8EF0DF0CEEF0DF0E0
:101B9000000E306E010E2F6ED2EF0DF0C8C02FF088
:101BA000C9C030F0C6C031F0C7C032F0CAA9DBEFFF
:101BB0000DF0DDEF0DF0E1EF0DF0FE0E3126FF0E22
:101BC00032221EC033F01FC034F020C035F021C0D7
:101BD00036F022C037F023C038F024C039F025C0D9
:101BE0003AF0000E3C6E1F0E3B6E000E03011F6F9D
:101BF00093EF0EF03B06D8A03C060F0E33143D6E5B
:101C00003E6A3EBE0DEF0EF03E5009E10A0E3D5C0D
:101C1000D8A00DEF0EF00FEF0EF017EF0EF0570EED
:101C20003D243D6E000E3E203E6E1DEF0EF0300E48
:101C30003D243D6E000E3E203E6EBF0E276EFF0E11
:101C4000286E2650296E2A6A2750292628502A22D3
:101C50002A5007E11A0E295CD8B031EF0EF033EFAD
:101C60000EF056EF0EF09F0E276EFF0E286E200E20
:101C70003D10296E000E3E102A6E2750292628504E
:101C80002A222A5007E11A0E295CD8B04AEF0EF03A
:101C90004CEF0EF056EF0EF03DC007F03EC008F0DE
:101CA000ADEC16F007C03DF008C03EF0000E3B243E
:101CB000D96E030E3C20DA6E3DC0DFFF2F06D8A0A0
:101CC00030063106D8A0320633C027F034C028F0E1
:101CD00035C029F036C02AF037C02BF038C02CF0C0
:101CE00039C02DF03AC02EF0050E80EF0EF0D890DE
:101CF0002E322D322C322B322A3229322832273200
:101D0000E82E77EF0EF027C033F028C034F029C05A
:101D100035F02AC036F02BC037F02CC038F02DC07B
:101D200039F02EC03AF03CBE9FEF0EF03C5009E176
:101D3000020E3B5CD8A09FEF0EF0A1EF0EF0D2EFA9
:101D40000EF033503410351036103710381039106B
:101D50003A10D8A4AEEF0EF0B0EF0EF0FAEF0DF09F
:101D600030BEBDEF0EF0305006E12F04D8B0BBEF0F
:101D70000EF0BDEF0EF0FAEF0DF032BEC8EF0EF030
:101D8000325008E13104D8A0C8EF0EF0CAEF0EF0CF
:101D9000D2EF0EF00001CAB3D0EF0EF0D2EF0EF08A
:101DA000FAEF0DF00001CAA9D8EF0EF0DAEF0EF04D
:101DB000F0EF0EF03B06D8A03C06000E3B24D96E97
:101DC000030E3C20DA6E26C0DFFF3B06D8A03C069F
:101DD000000E3B24D96E030E3C20DA6E300EDF6E0F
:101DE0001CC011F01DC012F0000E3B24136E030E38
:101DF0003C20146E31C015F032C016F005EC15F021
:101E000011C01CF012C01DF012000001C9BF0BEF81
:101E10000FF00DEF0FF00EEF0FF0CA93C9BF1BEFDD
:101E20000FF0C95106E1C805D8B019EF0FF01BEF4C
:101E30000FF021EF0FF0000E2F6E010E2E6E25EF2A
:101E40000FF0C8C02EF0C9C02FF0C6C030F0C7C018
:101E500031F01EC032F01FC033F020C034F021C07A
:101E600035F022C036F023C037F024C038F025C04A
:101E700039F0000E3B6E1F0E3A6E000E03011F6F0D
:101E8000B8EF0FF03A06D8A03B06000E3A24D96E00
:101E9000030E3B20DA6E32C001F033C002F034C0D2
:101EA00003F035C004F036C005F037C006F038C086
:101EB00007F039C008F00A0E096E000E0A6E000E17
:101EC0000B6E000E0C6E000E0D6E000E0E6E000EF0
:101ED0000F6E000E106E38EC14F001C026F002C038
:101EE00027F003C028F004C029F005C02AF006C07E
:101EF0002BF007C02CF008C02DF02650300FDF6EFD
:101F00002E06D8A02F063006D8A0310632C001F028
:101F100033C002F034C003F035C004F036C005F021
:101F200037C006F038C007F039C008F00A0E096E55
:101F3000000E0A6E000E0B6E000E0C6E000E0D6E83
:101F4000000E0E6E000E0F6E000E106E51EC13F0B0
:101F500001C032F002C033F003C034F004C035F0E9
:101F600005C036F006C037F007C038F008C039F0B9
:101F70003A503B10D8B4BFEF0FF0C1EF0FF0F2EFC3
:101F80000FF032503310341035103610371038102F
:101F90003910D8A4CEEF0FF0D0EF0FF042EF0FF0D2
:101FA0002FBEDDEF0FF02F5006E12E04D8B0DBEF8F
:101FB0000FF0DDEF0FF042EF0FF031BEE8EF0FF062
:101FC000315008E13004D8A0E8EF0FF0EAEF0FF04D
:101FD000F2EF0FF00001CAB3F0EF0FF0F2EF0FF0E5
:101FE00042EF0FF01CC011F01DC012F0000E3A2499
:101FF000136E030E3B20146E30C015F031C016F086
:1020000005EC15F011C01CF012C01DF01200730E8B
:102010000001606F000E616F010E626F0F0E636F43
:1020200084EC16F0730E026E000E036EC1EC15F018
:102030008B9C060EC96E9EA620EF10F022EF10F0CA
:102040001BEF10F09E968B8C3D0E5D6EE10E5C6E6C
:10205000400EE82EFED75C2EFCD75D2EFAD78B9C67
:10206000020EC96E9EA637EF10F039EF10F032EF76
:1020700010F09E96000EC96E9EA641EF10F043EF41
:1020800010F03CEF10F09E96010EC96E9EA64BEF2D
:1020900010F04DEF10F046EF10F09E96FA0EC96E5C
:1020A0009EA655EF10F057EF10F050EF10F09E96EF
:1020B000AA0EC96E9EA65FEF10F061EF10F05AEF06
:1020C00010F09E968B8C3D0E5D6EE10E5C6E400EA8
:1020D000E82EFED75C2EFCD75D2EFAD7010E00014C
:1020E000856F8FEF10F08B9C050EC96E9EA67BEF5F
:1020F00010F07DEF10F076EF10F09E96C7A083EF02
:1021000010F085EF10F07EEF10F0C9A08AEF10F00C
:102110008CEF10F06EEF10F0000E0001856F85510E
:10212000D8B495EF10F097EF10F073EF10F08B9C90
:10213000030EC96E9EA69FEF10F0A1EF10F09AEF6C
:1021400010F09E96000EC96E9EA6A9EF10F0ABEFA0
:1021500010F0A4EF10F09E96010EC96E9EA6B3EF8C
:1021600010F0B5EF10F0AEEF10F09E969EA6BBEF0C
:1021700010F0BDEF10F0B6EF10F09E96C9CF83F0CF
:102180009EA6C5EF10F0C7EF10F0C0EF10F09E96BE
:10219000C9CF84F08B8C9FEC17F0ECEC17F0730E2A
:1021A0000001606F000E616FBC0E626F0F0E636FF7
:1021B00083C064F0656B84EC16F0730E026E000E43
:1021C000036EC1EC15F0E3EC17F0730E0001606FC5
:1021D000000E616FBC0E626F0F0E636F84C064F0FF
:1021E000656B84EC16F0730E026E000E036EC1EC8C
:1021F00015F0F9EF10F012008C500001E215000903
:10220000D8B405EF11F007EF11F0BFEF11F0D59E34
:10221000000ED76F010ED66F9FEC17F0A70E0001CE
:10222000606F000E616F4F0E626F0F0E636F84EC74
:1022300016F0A70E026E000E036EC1EC15F01F0E15
:102240000001876F710E866F1E0EE82EFED7862F57
:10225000FCD7872FFAD700F022EC0CF09FEC17F098
:10226000ECEC17F0A70E0001606F000E616F220EFC
:10227000626F0F0E636F84EC16F0A70E026E000EF5
:10228000036EC1EC15F0E3EC17F0D8C001F0D9C033
:1022900002F0000E046E8C0E036E7AEC17F001C093
:1022A00086F002C087F0D6CF01F0D7CF02F0030E40
:1022B000046EE80E036E19EC16F0D8900136023663
:1022C000015000018625CC6F02508721CD6F980EFA
:1022D000606F000E616F400E626F0F0E636FCCC0B7
:1022E00064F0CDC065F084EC16F0980E026E000E1E
:1022F000036EC1EC15F023EE20F010EE88F00F0E07
:10230000DBCFE3FFE806FCE2B5EF11F0000EDF6F74
:10231000000EDE6FDFBF96EF11F0DF5109E1080E0E
:10232000DE5DD8A096EF11F098EF11F09AEF11F062
:10233000B5EF11F0DEC08BFFD890DE35D96EDF35FA
:10234000DA6E880ED926000EDA22DF508C6E200E4F
:102350000001866F290EE82EFED7862FFCD700D00D
:102360000001DE4BDF2B8AEF11F00001D451D511B3
:10237000D8B4BDEF11F0BFEF11F086EF11F01200ED
:10238000020E036ED40E026E850EE82EFED7022ECC
:10239000FCD7032EFAD700F0030E816ECFEC17F0B6
:1023A000020E036ED40E026E850EE82EFED7022EAC
:1023B000FCD7032EFAD700F0030E816ECFEC17F096
:1023C000020E036ED40E026E850EE82EFED7022E8C
:1023D000FCD7032EFAD700F0030E816ECFEC17F076
:1023E000020E036ED40E026E850EE82EFED7022E6C
:1023F000FCD7032EFAD700F0020E816ECFEC17F057
:10240000020E036ED40E026E850EE82EFED7022E4B
:10241000FCD7032EFAD700F0020E816ECFEC17F036
:10242000090E816ECFEC17F0020E036ED40E026E11
:10243000850EE82EFED7022EFCD7032EFAD700F029
:10244000000E816ECFEC17F00F0E816ECFEC17F0FF
:10245000020E036ED40E026E850EE82EFED7022EFB
:10246000FCD7032EFAD700F0000E816ECFEC17F0E8
:10247000010E816ECFEC17F0020E036ED40E026EC9
:10248000850EE82EFED7022EFCD7032EFAD700F0D9
:10249000000E816ECFEC17F0060E816ECFEC17F0B8
:1024A0001200810081008100810081008100810093
:1024B000810081008300C300C3008B009D00890060
:1024C0008100C100E100E100E30083008300870098
:1024D0008F009F008F0087008300C100E700E700A6
:1024E000E100E100C10081009900B900F100E100C4
:1024F000810081008100830087008F009F00BF0062
:102500009F008F00870083008100E100E100E1006F
:1025100083008700E300E10081008100B100B90081
:10252000B100810081008100C100E100F100E10003
:10253000C100810085008F0085008100810081003D
:10254000810089009D00BD00BD00BD009900810093
:102550008100E700E700E700C300810099009900CF
:1025600099009900990099009900BD00BD00810073
:1025700081008100810081008100C300E700F70035
:10258000F700F700F700F700F700F700F700F70093
:10259000F7008100810081008100810081008100BD
:1025A0008100810081008100810081008100810023
:1025B00081008100830087008F009F00BF00BF0063
:1025C0009F008F00C700E300F300F300E3008700E3
:1025D0008F009F009F009F008F00CF00CF00CF0093
:1025E000CF0081008100810081009900990099004D
:1025F0009900BD00BD00BD00BD00BD00B900B10027
:10260000B300A300A700A700A700A700A700E7004A
:10261000C700C700E700E70083008100B100B900F0
:10262000B100810087008700C300E100F100E100F4
:10263000C100850085008500850085008500850036
:1026400085008D009D00FD00FD00FD00F900E1000A
:10265000E300E700E700E700C3008100990099006C
:1026600099009900990099009900BD00BD00810072
:1026700081008100810081008100C300E700F70034
:10268000F700F700F700F700F700F700F700F70092
:10269000F7008100810081008100810081008100BC
:1026A000810020EE11F0070EDE6AE806FDE2095017
:1026B0000A100B100C100D100E100F101010D8B4C3
:1026C00064EF13F066EF13F0B8EF13F0010E196E1C
:1026D00074EF13F0D89009360A360B360C360D36E7
:1026E0000E360F361036192A10AE79EF13F07BEF45
:1026F00013F06AEF13F0D8901136123613361436F1
:1027000015361636173618360950015C0A5002582D
:102710000B5003580C5004580D5005580E500658D5
:102720000F50075810500858D8A099EF13F09BEF9E
:1027300013F0ACEF13F00950015E0A50025A0B502F
:10274000035A0C50045A0D50055A0E50065A0F5099
:10275000075A1050085A1180D89010320F320E329A
:102760000D320C320B320A320932192E7BEF13F084
:1027700011C001F012C002F013C003F014C004F045
:1027800015C005F016C006F017C007F018C008F015
:10279000120001C008F002C009F003C00AF004C032
:1027A0000BF00506D8A00606052806E10628D8A4E1
:1027B000DCEF13F0DEEF13F0EBEF13F0000E026E20
:1027C000000E016E37EF14F0084A092A0A4A0B2A54
:1027D0000506D8A0060608C0F6FF09C0F7FF0800E6
:1027E000F5500009D8B4F7EF13F0F9EF13F025EF27
:1027F00014F00AC0F6FF0BC0F7FF0800F5500009FF
:10280000D8B405EF14F007EF14F025EF14F00550DD
:102810000610D8B40EEF14F010EF14F025EF14F0FA
:1028200008C0F6FF09C0F7FF0800F5CF07F00AC09F
:10283000F6FF0BC0F7FF0800F5500718D8B423EFD8
:1028400014F025EF14F0E4EF13F008C0F6FF09C010
:10285000F7FF0800F5CF07F00AC0F6FF0BC0F7FF3F
:102860000800F550075C016E026AD8A0020612004B
:1028700009500A100B100C100D100E100F10101034
:10288000D8B445EF14F047EF14F08FEF14F0010EB9
:10289000116E55EF14F0D89009360A360B360C3607
:1028A0000D360E360F361036112A10AE5AEF14F0D0
:1028B0005CEF14F04BEF14F00950015C0A50025821
:1028C0000B5003580C5004580D5005580E50065824
:1028D0000F50075810500858D8A071EF14F073EF3C
:1028E00014F083EF14F00950015E0A50025A0B50A5
:1028F000035A0C50045A0D50055A0E50065A0F50E8
:10290000075A1050085AD89010320F320E320D323A
:102910000C320B320A320932112E5CEF14F001C076
:1029200001F002C002F003C003F004C004F005C0CF
:1029300005F006C006F007C007F008C008F0120056
:1029400003500410D8B4A7EF14F0A9EF14F0B2EFBD
:1029500014F003500410D8A4B0EF14F0B2EF14F048
:10296000B7EF14F0015006EC18F004EF15F020EE6C
:1029700009F00350D9260450DA22DE50DE10D8B414
:10298000C4EF14F0C6EF14F0E1EF14F020EE09F0FC
:102990000350D9260450DA2210EE03F00350E1264A
:1029A0000450E222DE50E65CE650800A096EDE50FA
:1029B000800A0958D8B0DFEF14F0E1EF14F004EF0B
:1029C00015F020EE03F00350D9260450DA22DECFB2
:1029D00005F0DDCF06F003C0D9FF04C0DAFFDECF7B
:1029E00007F0DDCF08F005500724D96E0650082007
:1029F000DA6E01C0DFFF20EE03F00350D926045049
:102A0000DA22DE2A000EDD2212000001CAA10BEF3D
:102A100015F00DEF15F017EF15F013C00AF014C004
:102A20000BF011C00CF012C00DF0CFEC16F016BE7A
:102A30001CEF15F01EEF15F024EF15F015C01AF07D
:102A400016C01BF028EF15F0000E1B6E000E1A6E5C
:102A5000000E196E000E186E3AEF15F0000E026EA1
:102A6000200E016E11C003F012C004F0A0EC14F0AF
:102A7000184A192A1A50185C1950800A176E1B50F0
:102A8000800A1758D8A047EF15F049EF15F02EEF40
:102A900015F00001CAB14FEF15F051EF15F05BEFE3
:102AA00015F013C00AF014C00BF011C00CF012C0E6
:102AB0000DF0CFEC16F013C001F014C002F047EC9B
:102AC00017F01A500124116E1B500220126E1200D2
:102AD000A20EF66E250EF76E000EF86E05EE00F0F3
:102AE00011EE00F00900F5CFEEFFE550E150FAE1FC
:102AF000E250F8E1A20EF66E240EF76E000EF86EAC
:102B000004EE00F011EE00F00900F5CFEEFFE55005
:102B1000E150FAE1E250F8E1FA0EF66E2F0EF76E90
:102B2000000EF86E03EE20F010EE10F00900F5CF65
:102B3000EEFFE550E150FAE1EA0EF66E2F0EF76E69
:102B4000000EF86E00EEEEF010EE10F00900F5CF7A
:102B5000EEFFE550E150FAE103EE00F0200EEE6AE0
:102B6000E806FDE100EEC4F02A0EEE6AE806FDE19B
:102B70005E905E92000EF86E0F0EF76E0001E0EFB1
:102B800007F0000E0B6E0B500224D96E000E0320CE
:102B9000DA6EDF50D8A4CFEF15F0D1EF15F0D3EFF8
:102BA00015F013EF16F00B500224D96E000E03201F
:102BB000DA6EDF50096E0950F00B0A6E09500F0BE8
:102BC000066E0A380F0B0A6E0A50800F076E065009
:102BD000800F086E07C081FFCFEC17F0020E056E64
:102BE000D40E046E850EE82EFED7042EFCD7052EDB
:102BF000FAD700F008C081FFCFEC17F0020E056E87
:102C0000D40E046E850EE82EFED7042EFCD7052EBA
:102C1000FAD700F00B2A0F0E0B6411EF16F013EF2A
:102C200016F0C3EF15F0000E0001ED6F010EEC6F12
:102C30001200000E066E000E056E03500410D8B48C
:102C400024EF16F026EF16F04EEF16F0010E076E89
:102C50002EEF16F0D89003360436072A04AE33EF71
:102C600016F035EF16F02AEF16F0D8900536063636
:102C70000350015C04500258D8A041EF16F043EF16
:102C800016F048EF16F00350015E0450025A05801A
:102C9000D89004320332072E35EF16F005C001F04C
:102CA00006C002F0120056C05AF057C05BF0000E8A
:102CB0000001C56F000EC46F71EF16F054C03FF0F5
:102CC00055C040F05A0E416E000E426E58C043F09F
:102CD00059C044F027EC0AF03F500001C42740508F
:102CE000C5235AC0F6FF5BC0F7FF0800F550000986
:102CF000D8A47DEF16F07FEF16F05EEF16F0C4C09B
:102D000054F0C5C055F01200640E0001666F000E4D
:102D1000676F60C068F061C069F0000E6C6F000EF4
:102D20006B6F000E726F000E716F680E546E000EA6
:102D3000556E62C056F063C057F0660E586E000EB6
:102D4000596E53EC16F000016B516025D96E6C5131
:102D50006121DA6E000EDF6E12009F0E096EFF0E0B
:102D60000A6E07C00BF008C00CF009500B260A5081
:102D70000C220C5007E11A0E0B5CD8B0C2EF16F013
:102D8000C4EF16F0CAEF16F05F0E0714076E086A5C
:102D9000CEEF16F007C007F008C008F01200000ED2
:102DA000106E000E0F6EE0EF16F00EC001F0026A1A
:102DB0000CC003F00DC004F0A0EC14F00F4A102A70
:102DC0000F500A24D96E10500B20DA6EDF500E6EB1
:102DD0000E50D8A4EEEF16F0F0EF16F0D5EF16F087
:102DE00012009F0E036EFF0E046E200E0110056E82
:102DF000000E0210066E03500526045006220650EF
:102E00000AE11A0E055CD8A008EF17F00BEF17F0D7
:102E1000010E0CEF17F0000E016E026A12009F0EF9
:102E2000036EFF0E046E01C005F002C006F00350F1
:102E300005260450062206500AE11A0E055CD8A0A9
:102E400024EF17F027EF17F0010E28EF17F0000E10
:102E5000016E026A1200BF0E036EFF0E046E01C007
:102E600005F002C006F00350052604500622065065
:102E70000AE11A0E055CD8A040EF17F043EF17F0F7
:102E8000010E44EF17F0000E016E026A120001C03D
:102E900003F002C004F04FEF17F0014A022A01C00C
:102EA000D9FF02C0DAFFDF50D8A459EF17F05BEF6B
:102EB00017F04DEF17F00350015C016E04500258FB
:102EC000026E120020EEEEF010EE01F00F0EDBCFDE
:102ED000E3FFE806FCE2D8900001FE35D96EFF352D
:102EE000DA6E010ED926000EDA22DECFE2F0DDCF57
:102EF000E3F0120001500302F3CF05F0F4CF06F027
:102F000001500402F350062602500302F350062635
:102F100005C001F006C002F01200F29E550EA76E29
:102F2000AA0EA76E0E01BF91000EE16F010EE26FB7
:102F3000F29E550EA76EAA0EA76EBF8112009C0EC0
:102F4000026ED70EE82EFED7022EFCD700F0000E40
:102F5000816ECFEC17F0010E816ECFEC17F01200EE
:102F6000F28EF086F088F18AF188F090F092F28C7F
:102F7000D09EF28AF294D59AD59CD596070ED5129A
:102F800012000F0148691F0E496FDF0E926E200E6E
:102F9000936E000E946E000E956E8B8C1200808ADC
:102FA0009C0E016ED70EE82EFED7012EFCD700F046
:102FB000809A1200C650F00B0109C66EC698C79CD5
:102FC000C79EC68A12000C0E816ECFEC17F0000E61
:102FD000816ECFEC17F01200080E816ECFEC17F067
:102FE000000E816ECFEC17F0120080004000200030
:102FF000100008000400020001007C00540046009C
:0E3000008300CD00CD008100420012001200BE
:020000040001F9
:08FFF800AAF7FDFFF3F9FFFB7E
:00000001FF
